:100000000C945D000C9485000C9485000C94850084
:100010000C9485000C9485000C9485000C9485004C
:100020000C9485000C9485000C9485000C9485003C
:100030000C9485000C9485000C9485000C9485002C
:100040000C9415040C9485000C94E3030C94BD03EC
:100050000C9485000C9485000C9485000C9485000C
:100060000C9485000C94850000000008000201003B
:100070000003040700000000000000000000000072
:10008000250028002B0000000000240027002A0083
:10009000040404040404040402020202020203032E
:1000A0000303030301020408102040800102040836
:1000B00010200102040810205F0411241FBECFEF9E
:1000C000D8E0DEBFCDBF11E0A0E0B1E0E4EBFBE0A3
:1000D00002C005900D92A03AB107D9F722E0A0EA3C
:1000E000B1E001C01D92AC36B207E1F710E0CDE5FA
:1000F000D0E004C02197FE010E94D205CC35D10783
:10010000C9F70E94A9040C94D8050C94000090E053
:10011000FC01EC55FF4F249180579F4FFC018491C7
:10012000882399F090E0880F991FFC01EA57FF4F50
:10013000A591B491FC01E458FF4F859194918FB73C
:10014000F894EC91E22BEC938FBF0895AF92BF929D
:10015000CF92DF92EF92FF920F931F93CF93DF9393
:100160006C017B018B01040F151FEB015E01AE18C2
:10017000BF08C017D10759F06991D601ED91FC91E4
:100180000190F081E02DC6010995892B79F7C50111
:10019000DF91CF911F910F91FF90EF90DF90CF9063
:1001A000BF90AF900895FC01538D448D252F30E012
:1001B000842F90E0821B930B541710F0CF96089574
:1001C00001970895FC01918D828D981761F0A28DA1
:1001D000AE0FBF2FB11D5D968C91928D9F5F9F7367
:1001E000928F90E008958FEF9FEF0895FC01918D1D
:1001F000828D981731F0828DE80FF11D858D90E08A
:1002000008958FEF9FEF0895FC01918D228D892F26
:1002100090E0805C9F4F821B91098F73992708950E
:1002200087EB91E00E94040121E0892B09F420E092
:10023000822F089580E090E0892B29F00E94100120
:1002400081110C9400000895FC01A48DA80FB92F12
:10025000B11DA35ABF4F2C91848D90E001968F73EE
:100260009927848FA689B7892C93A089B1898C910D
:10027000837080648C93938D848D981306C002885C
:10028000F389E02D80818F7D80830895EF92FF9226
:100290000F931F93CF93DF93EC0181E0888F9B8DA9
:1002A0008C8D98131AC0E889F989808185FF15C063
:1002B0009FB7F894EE89FF896083E889F989808186
:1002C0008370806480839FBF81E090E0DF91CF9155
:1002D0001F910F91FF90EF900895F62E0B8D10E077
:1002E0000F5F1F4F0F731127E02E8C8D8E110CC0E6
:1002F0000FB607FCFACFE889F989808185FFF5CF31
:10030000CE010E942401F1CFEB8DEC0FFD2FF11DEA
:10031000E35AFF4FF0829FB7F8940B8FEA89FB896D
:1003200080818062CFCFCF93DF93EC01888D8823CB
:10033000B9F0AA89BB89E889F9898C9185FD03C048
:10034000808186FD0DC00FB607FCF7CF8C9185FF2D
:10035000F2CF808185FFEDCFCE010E942401E9CF4D
:10036000DF91CF91089590E0FC01E859FF4F24916F
:10037000FC01EC55FF4F3491FC01E057FF4FE49135
:10038000EE23C9F0222339F0233001F1A8F4213003
:1003900019F1223029F1F0E0EE0FFF1FE458FF4F72
:1003A000A591B4918FB7F894EC91611126C0309566
:1003B0003E233C938FBF08952730A9F02830C9F021
:1003C000243049F7809180008F7D03C080918000A8
:1003D0008F7780938000DFCF84B58F7784BDDBCFAC
:1003E00084B58F7DFBCF8091B0008F778093B00074
:1003F000D2CF8091B0008F7DF9CF3E2BDACF3FB7BF
:10040000F8948091A5019091A601A091A701B091C7
:10041000A80126B5A89B05C02F3F19F00196A11D84
:10042000B11D3FBFBA2FA92F982F8827BC01CD013E
:10043000620F711D811D911D42E0660F771F881F9D
:10044000991F4A95D1F708958F929F92AF92BF92CC
:10045000CF92DF92EF92FF924B015C010E94FF016D
:100460006B017C010E94FF016C197D098E099F09B7
:10047000683E734081059105A8F321E0821A910836
:10048000A108B10888EEC80E83E0D81EE11CF11C5B
:1004900081149104A104B10429F7FF90EF90DF903B
:1004A000CF90BF90AF909F908F900895089590E067
:1004B00080E00895FC0101900020E9F73197AF0139
:1004C000481B590BBC0184E592E00C94A600CF9325
:1004D000DF93EC0160E08E810E94B30161E08E81C8
:1004E0000E94B30160E08E810E94B3018BE891E02D
:1004F0000197F1F7DF91CF910895CF92DF92EF92BC
:10050000FF920F931F93CF93DF936C017C0187E0E1
:10051000E80EF11CD0E0C0E0062F10E0B8010C2E70
:1005200002C0759567950A94E2F76170F7018191B1
:100530007F010E94B3012196C430D10579F7C6012D
:10054000DF91CF911F910F91FF90EF90DF90CF90AF
:100550000C946702CF92DF92EF92FF920F931F935A
:10056000CF93DF93EC01F62E642F8C810E94B301B0
:100570008D818F3F19F060E00E94B3010F2D10E0D4
:100580008F8584FF25C06E0187E0C80ED11CF12C39
:10059000E12CB8010E2C02C0759567950A94E2F71C
:1005A0006170F60181916F010E94B301FFEFEF1AB4
:1005B000FF0A88E0E816F10461F7CE01DF91CF91E0
:1005C0001F910F91FF90EF90DF90CF900C946702F6
:1005D000B80184E0759567958A95E1F7CE010E9490
:1005E0007D026F2DCE01DF91CF911F910F91FF9072
:1005F000EF90DF90CF900C947D0240E0682F84E56F
:1006000092E00C94AA0281E00E94FD028BE39FE13C
:100610000197F1F70895CF93DF93823029F49091F9
:10062000630298609093630280936702109268025D
:1006300080E48093690280E180936A0280E5809380
:100640006B02809158020E948700809159028F3F6F
:1006500011F00E94870080915A020E948700C4E531
:10066000D2E09E01245532408091630284FD0AC08D
:1006700084E090E02196281739073CF48E810E948F
:100680008700EFCF88E090E0F5CF8BE39DE0019706
:10069000F1F760E0809158020E94B30160E0809120
:1006A0005A020E94B301809159028F3F19F060E015
:1006B0000E94B3018091630284FD34C063E084E54D
:1006C00092E00E947D02CBE4D6E4CE010197F1F7DF
:1006D00063E084E592E00E947D022197F1F763E0F8
:1006E00084E592E00E947D0283E592E00197F1F7B4
:1006F00062E084E592E00E947D0280916302806264
:100700000E94FD0284E0809364028CE00E94FD025E
:100710000E94030382E08093650286E0DF91CF911F
:100720000C94FD0280620E94FD028BE496E4019726
:10073000F1F78091630280620E94FD0283E592E0FE
:100740000197F1F78091630280620E94FD02D5CF8C
:1007500090916702691710F06FEF690FE62FF0E0D4
:10076000EC5AFD4F9489890F80680C94FD0241E09A
:100770000E94AA0281E090E008951F920F920FB6A6
:100780000F9211242F933F934F935F936F937F9317
:100790008F939F93AF93BF93EF93FF9387EB91E07A
:1007A0000E942401FF91EF91BF91AF919F918F9192
:1007B0007F916F915F914F913F912F910F900FBE5D
:1007C0000F901F9018951F920F920FB60F92112441
:1007D0002F938F939F93EF93FF93E091C701F09135
:1007E000C8018081E091CD01F091CE0182FD1BC056
:1007F00090818091D0018F5F8F732091D1018217FA
:1008000041F0E091D001F0E0E954FE4F958F8093E4
:10081000D001FF91EF919F918F912F910F900FBE7B
:100820000F901F9018958081F4CF1F920F920FB6F2
:100830000F9211242F933F938F939F93AF93BF9366
:100840008091A1019091A201A091A301B091A40176
:100850003091A00123E0230F2D3758F50196A11DFB
:10086000B11D2093A0018093A1019093A201A093B8
:10087000A301B093A4018091A5019091A601A0913C
:10088000A701B091A8010196A11DB11D8093A501FA
:100890009093A601A093A701B093A801BF91AF9137
:1008A0009F918F913F912F910F900FBE0F901F90AE
:1008B000189526E8230F0296A11DB11DD2CFE7EBB4
:1008C000F1E01382128288EE93E0A0E0B0E084832E
:1008D0009583A683B78388E291E09183808385EC3A
:1008E00090E09587848784EC90E09787868780ECFA
:1008F00090E0918B808B81EC90E0938B828B82ECEB
:1009000090E0958B848B86EC90E0978B868B118E94
:10091000128E138E148EE4E5F2E0138212828AE3C3
:1009200091E0918380838DE084838FEF85838CE0D9
:10093000868385E0878384E0808783E0818782E007
:1009400082871386148615861686178681E00C9496
:100950000B03789484B5826084BD84B5816084BDC6
:1009600085B5826085BD85B5816085BD80916E004D
:10097000816080936E00109281008091810082607E
:1009800080938100809181008160809381008091BB
:1009900080008160809380008091B10084608093AA
:1009A000B1008091B00081608093B00080917A00A6
:1009B000846080937A0080917A00826080937A00CC
:1009C00080917A00816080937A0080917A008068BB
:1009D00080937A001092C10082E00E940B03E091A4
:1009E000C701F091C80182E08083E091C301F091DA
:1009F000C4011082E091C501F091C6018FEC8083A3
:100A00001092CF01E091CB01F091CC0186E0808380
:100A1000E091C901F091CA01808180618083E091F9
:100A2000C901F091CA01808188608083E091C90189
:100A3000F091CA01808180688083E091C901F091C2
:100A4000CA0180818F7D80830E94030360E080E083
:100A50000E94A80382E491E00E945A0261E084E0CF
:100A60000E94A80383E591E00E945A0268EE73E0B9
:100A700080E090E00E9424020E94030300E010E066
:100A80000E94030360E080E00E94A8034EE050E073
:100A90006BE571E084E592E00E94A60064EF71E0EE
:100AA00080E090E00E942402C0E087EB91E00E9489
:100AB0000401892B09F059C0CC3011F70E940303BF
:100AC0004BE050E06AE671E084E592E00E94A60007
:100AD00068EE73E080E090E00E942402C091B601CD
:100AE00040E051E023E0EAEAF1E090E080E031917B
:100AF000DA01A80FB91F6C91631344C001968C30C2
:100B00009105A9F781E0C1E02150445F5F4F2111B9
:100B1000EACF8093A901C093B6010E94030360E06D
:100B2000CC2391F181E00E94A80386E791E00E9426
:100B30005A0261E084E00E94A80387E991E00E94E4
:100B40005A021092B60168EE73E080E090E00E94D5
:100B500024020115110509F493CF0E941001882386
:100B600009F48ECF0E9400008BCF87EB91E00E94AA
:100B7000E200EC2F0C2E000CFF0BE655FE4F80839D
:100B8000CF5F93CF80E0C0CF82E00E94A80385E8CA
:100B900091E00E945A0261E082E00E94A80383E98A
:100BA00091E0CDCFEE0FFF1F0590F491E02D099459
:040BB000F894FFCFE7
:100BB40033303030394142433933414233303030BD
:100BC400393245413243423433303030393335429F
:100BD40033463943000000004601A600D3009301C8
:100BE4000401E200F60000000000B703A60057026B
:100BF40056025246494420434152442052454144FE
:100C040045520057656C636F6D6500454E544552FF
:100C140020544845204341524400436865636B694E
:100C24006E672E2E2E0041434345535320475241B5
:100C34004E544544004143434553532044454E4993
:100C44004544004E4F5420564552494649454400B8
:107E0000112484B714BE81FFF0D085E080938100F7
:107E100082E08093C00088E18093C10086E0809377
:107E2000C20080E18093C4008EE0C9D0259A86E02C
:107E300020E33CEF91E0309385002093840096BBD3
:107E4000B09BFECF1D9AA8958150A9F7CC24DD24C4
:107E500088248394B5E0AB2EA1E19A2EF3E0BF2EE7
:107E6000A2D0813461F49FD0082FAFD0023811F036
:107E7000013811F484E001C083E08DD089C08234E0
:107E800011F484E103C0853419F485E0A6D080C0E4
:107E9000853579F488D0E82EFF2485D0082F10E0AE
:107EA000102F00270E291F29000F111F8ED06801E7
:107EB0006FC0863521F484E090D080E0DECF843638
:107EC00009F040C070D06FD0082F6DD080E0C81688
:107ED00080E7D80618F4F601B7BEE895C0E0D1E017
:107EE00062D089930C17E1F7F0E0CF16F0E7DF06D8
:107EF00018F0F601B7BEE89568D007B600FCFDCFD4
:107F0000A601A0E0B1E02C9130E011968C91119780
:107F100090E0982F8827822B932B1296FA010C0160
:107F200087BEE89511244E5F5F4FF1E0A038BF0790
:107F300051F7F601A7BEE89507B600FCFDCF97BE46
:107F4000E89526C08437B1F42ED02DD0F82E2BD052
:107F50003CD0F601EF2C8F010F5F1F4F84911BD097
:107F6000EA94F801C1F70894C11CD11CFA94CF0C13
:107F7000D11C0EC0853739F428D08EE10CD085E9AC
:107F80000AD08FE07ACF813511F488E018D01DD067
:107F900080E101D065CF982F8091C00085FFFCCF94
:107FA0009093C60008958091C00087FFFCCF809118
:107FB000C00084FD01C0A8958091C6000895E0E648
:107FC000F0E098E1908380830895EDDF803219F02E
:107FD00088E0F5DFFFCF84E1DECF1F93182FE3DFCA
:107FE0001150E9F7F2DF1F91089580E0E8DFEE27F6
:047FF000FF270994CA
:027FFE00040479
:0400000300007E007B
:00000001FF
